:020000040800F2
:1000000048780020610200082B1C0008CD19000868
:10001000291C0008E70300089538000800000000CC
:10002000000000000000000000000000A101000826
:100030006904000800000000FD010008D31D00084D
:100040007B0200087B0200087B0200087B0200089C
:100050007B0200087B0200087B0200087B0200088C
:100060007B0200087B0200087B0200087B0200087C
:100070007B0200087B0200087B0200087B0200086C
:100080007B0200087B0200087B0200087B0200085C
:100090007B0200087B0200087B0200087B0200084C
:1000A0007B0200087B0200087B0200087B0200083C
:1000B0007B0200087B0200087B0200087B0200082C
:1000C0007B0200087B0200087B0200087B0200081C
:1000D0007B0200087B0200087B0200087B0200080C
:1000E0007B0200087B0200087B0200087B020008FC
:1000F0007B0200087B0200087B0200087B020008EC
:100100007B0200087B0200087B0200087B020008DB
:100110007B0200087B0200087B0200087B020008CB
:100120007B0200087B0200087B0200087B020008BB
:100130007B0200087B0200087B0200087B020008AB
:100140007B0200087B0200087B0200082D1C0008CF
:100150007B0200087B0200087B0200087B0200088B
:100160007B0200087B0200087B0200087B0200087B
:100170007B0200087B0200087B02000800000000F0
:100180007B0200087B020008DFF810D000F0EEF8D8
:100190000048004731390008AFF30080487800205C
:1001A0002C4B19680868B0E8F04F80F30988BFF35A
:1001B0006F8F4FF0000080F311887047000000003F
:1001C00008480068006880F308884FF0000080F35A
:1001D000148862B661B6BFF34F8FBFF36F8F00DF35
:1001E00000BF00BF08ED00E0DFF80C00016841F43B
:1001F00070010160704700BF88ED00E0EFF30980F7
:10020000BFF36F8F134B1A681EF0100F08BF20ED5D
:10021000108A20E9F04F106009B44FF0500080F3CD
:100220001188BFF34F8FBFF36F8F04F09FFA4FF029
:10023000000080F3118809BC19680868B0E8F04F25
:100240001EF0100F08BFB0EC108A80F30988BFF3CE
:100250006F8F704784000020EFF305807047000027
:100260000648804706480047FEE7FEE7FEE7FEE750
:10027000FEE7FEE7FEE7FEE7FEE7FEE7711E000889
:10028000890100082DE9F05F0546002092469B4653
:1002900088460646814640241BE02846414647469C
:1002A000224600F053F853465A46C01A914110D3E3
:1002B00011461846224600F03AF82D1A67EB01085D
:1002C0004F4622460120002100F031F817EB0009CB
:1002D0004E41201EA4F10104DFDC484631462A4687
:1002E0004346BDE8F09F40EA01039B0703D009E0C5
:1002F00008C9121F08C0042AFAD203E011F8013B12
:1003000000F8013B521EF9D27047D2B201E000F86A
:10031000012B491EFBD270470022F6E710B51346A9
:100320000A4604461946FFF7F0FF204610BD202A72
:1003300004DB203A00FA02F1002070479140C2F13C
:10034000200320FA03F3194390407047202A04DB6E
:10035000203A21FA02F00021704721FA02F3D0403E
:10036000C2F120029140084319467047064C074DE0
:1003700006E0E06840F0010394E807009847103475
:10038000AC42F6D3FFF704FF685200088852000819
:1003900070B58C1810F8015B15F0070301D110F847
:1003A000013B2A1106D110F8012B03E010F8016B74
:1003B00001F8016B5B1EF9D12B0705D40023521EF7
:1003C0000DD401F8013BFAE710F8013BCB1A921C5F
:1003D00003E013F8015B01F8015B521EF9D5A1425D
:1003E000D8D3002070BDFEE7002070470020704782
:1003F00010B500220449054801F0AAFF044903484A
:1004000001F0A0FF002010BD701300209802002012
:10041000700B002070B50D4604460146054801F0FA
:1004200091FF044801F073FF2946204600F01EF8B2
:10043000002070BD9802002000207047094A10B5C6
:10044000D2F8BC22D2F814220AB1012010BD0A460B
:100450000146044801F07CFFBDE81040014801F06E
:10046000D7BF000098020020704700002DE9F04738
:100470000E468146002202210E4800F08DF900252B
:100480000D4C0E4FA8460FE0E07819F805103954CE
:10049000401CC0B2E0702178884203D100F012F80D
:1004A00084F803806D1CEDB23068A842ECD8BDE83A
:1004B000F087000000180240000000201802002011
:1004C000704700000448407818B1052803D100F0B7
:1004D0000FB800F003B8704700000020024803493D
:1004E00000784870FFF7EEBF1802002000000020DF
:1004F000F0B52B4893B001248178E1B3012945D1AF
:1005000028A00AAD0FC885E80F002A4A002001A9DB
:10051000135C0B54401CC0B21028F9D310200AAA57
:10052000131813F8103C0B54401CC0B22028F7D30A
:10053000214F7A170023002011F8035004FA00F627
:100540002E40C64002F0010C8CEA060CBCF1010FF3
:1005500022D05208401CC0B20828EFD35B1CDBB28B
:10056000202BE8D3D043020E010C8DF84020030A63
:100570008DF8411000E00BE08DF842308DF843001B
:10058000042110A8FFF75AFF01F00EFC13B0F0BDD4
:10059000102101708470F9E787EA5202DAE700005F
:1005A0000000002054414D5520526F626F4D617321
:1005B00074657273180200202083B8ED70B504468C
:1005C00000F0F0F80546601C02D0044800780444AE
:1005D00000F0E8F8401BA042FAD370BD7400002080
:1005E0002DE9F84F00224FF0010803254FF00F0EC0
:1005F0000B6808FA02F42340A3426ED14E68012E24
:1006000005D0022E03D0112E01D0122E12D18668F1
:100610004FEA420C05FA0CF7BE43CF6807FA0CF715
:10062000374387604668A6430C79C4F300149440AE
:1006300034434460C668570005FA07FC8C6826EA14
:100640000C06BC403443C4604C68022C01D0122C10
:1006500013D1D40800EB8404A346D4F820905407A7
:100660004FEAD46A0EFA0AF629EA06090E6906FA72
:100670000AF646EA0906CBF8206006680C7926EAF5
:100680000C0604F00304BC40344304604C68E400EE
:1006900065D5364C266846F480462660246822F0EC
:1006A000030604F480440094314C3444A446D4F846
:1006B00008489607370F0EFA07F6B4432D4EB0429E
:1006C00001D1002624E02C4EB04201D101261FE0CA
:1006D0002A4EB04202D102261AE040E0284EB04233
:1006E00001D1032614E0274EB04201D104260FE0C9
:1006F000254EB04201D105260AE0244EB04201D178
:10070000062605E0224EB04201D1072600E0082669
:10071000BE402643CCF808681E4E34684F689C43A0
:10072000FF0300D51C4334601A4C241D26684F6813
:100730009E43BF0300D51E432660164E083634681C
:100740004F689C43FF0200D51C433460114E0C36A9
:1007500034684F689C43BF0200D51C433460521C70
:10076000102AFFF445AFBDE8F88F0000443802407E
:100770000030014000000240000402400008024036
:10078000000C024000100240001402400018024019
:10079000001C0240003C01400AB18161704709041D
:1007A000FBE70000014880687047000074000020EB
:1007B000024881680278114481607047740000200B
:1007C0000B4810B5016841F400710160016841F403
:1007D00080610160016841F480710160032000F0D4
:1007E0006FF8002000F006F800F024F8002010BD9B
:1007F000003C024070B50D4D04464FF47A712878E4
:10080000B1FBF0F00A490968B1FBF0F000F080FF9D
:1008100048B9102C07D200222146501E00F030F8B3
:1008200000206C6070BD012070BD000074000020CD
:10083000800000200A4808B5016841F48041016049
:10084000006800F4804000900548001F016841F0F6
:1008500080510160006800F08050009008BD0000E9
:1008600044380240002809DB00F01F0201219140BA
:100870004009800000F1E020C0F80011704700003E
:10088000F0B40E4B1B680C46C3F30223C3F10705FB
:10089000042D00D90425191D072901D2002300E0E9
:1008A000DB1E012606FA05F1491E214099409E40B3
:1008B000761E16403143F0BC02F0EDBF0CED00E0B7
:1008C000064900F0070208684FF6FF03184040EAA7
:1008D0000220034A10430860704700000CED00E05E
:1008E0000000FA0570470068416200207047F0B5CB
:1008F0000368586A39B19C6A4FF4827600EB14445D
:1009000000204D1E0AE040EA024098620FE006EB2C
:100910008007DF59401C04EB1744C0B2A842F6D34D
:1009200044EA02404FF4807202EB810158500020EB
:10093000F0BDD0F8040401F0AABFC1EBC10200EB86
:100940008202D0F80404926C01F015BFC1EBC10221
:1009500000EB8202D0F80404D2F8082201F060BF54
:10096000D0F8040401F095BF70B504460B0601F001
:100970000F00C0EBC00104EB81014FF001024FF00A
:10098000000503D581F83D203C3103E081F8FD519D
:1009900001F5FE71087094F8BC03012808D084F8B2
:1009A000BC23206802F00EFB84F8BC53002070BD0D
:1009B000022070BD70B5044601F00F0062689042DD
:1009C00001D9012070BD0B0601F00F01C1EBC1017F
:1009D00004EB81014FF001024FF0000503D581F8CF
:1009E0003D203C3103E081F8FD5101F5FE718D7031
:1009F000087094F8BC03012808D084F8BC23206850
:100A000002F0DAFC84F8BC53002070BD022070BDF7
:100A100001F00F01C1EBC10100EB8100D0F814021D
:100A200070472DE9F04104460F0601F00F00C0EBBE
:100A3000C00104EB81014FF001064FF0000503D522
:100A400081F83D603C3103E081F8FD5101F5FE7114
:100A500008708A60CB704A7802B1C880022B00D13E
:100A60000D7194F8BC03012809D084F8BC63206898
:100A700002F004FA284684F8BC53BDE8F081022055
:100A8000FBE770B50C4601F00F05C5EBC50100EBA7
:100A90008101C1F81032C1F808220023C1F81432D4
:100AA00081F8FD3181F8FC51036901F5FE71012BDC
:100AB00000D10A612207027C006803D002F0D4FC56
:100AC000002070BD02F0C0FBFAE770B504460D4689
:100AD00001F00F006168884201D9012070BD29062C
:100AE0004FF000064FF0010207D5C0EBC00104EB48
:100AF000810181F83D203C3107E0C5EBC50104EBE5
:100B0000810181F8FD6101F5FE718A70087094F829
:100B1000BC03012807D084F8BC23206802F078FCCD
:100B2000280702D007E0022070BD217C04F5717215
:100B3000206802F015FC84F8BC63002070BD70B51D
:100B40000C4601F00F05C5EBC50100EB81010B65FB
:100B50008A6400234B65012381F83D3001F83C5F36
:100B60000369012B00D10A612207027C006803D0CF
:100B700002F07AFC002070BD02F066FBFAE700008C
:100B80002DE9FC5F05680446284602F096FD002822
:100B90007ED1206802F0BDFD002879D0206802F0E7
:100BA000B8FD800704D52168486900F0020048615B
:100BB000206802F0AEFDC10604F57170009034D5D6
:100BC0002068816921F0100181612F6A07F00F0010
:100BD000C0EBC00004EB8006C7F3434006F5FE7689
:100BE000022802D0062811D01AE047F6F07007421A
:100BF00016D0C7F30A1217462846F16802F08DFD99
:100C0000F0683844F060B069384408E008222846AB
:100C1000009902F082FDB069C7F30A110844B0617F
:100C20002068816941F010018161206802F071FD46
:100C300000034FF0010A4FF0080B5BD50026206837
:100C400002F046FD0746DFF8689351E0F8074DD003
:100C5000F1B2206802F055FD8046C00707D005EBD1
:100C60004611C1F808AB3146204600F0E5FF5FEAC7
:100C7000087022D505EB4611C1F808BB2068016C4D
:100C800000EB46100191D0F8082B494507D900E048
:100C90008BE1110403D54FF40041C0F8081B204636
:100CA00000F076FA0198484507D92069012804D157
:100CB00020680121009A02F053FB5FEAC86004D566
:100CC00005EB46111020C1F8080B5FEA886004D5D7
:100CD00005EB46112020C1F8080B5FEA884005D5D6
:100CE00005EB46104FF40051C0F8081B7F08761C36
:100CF000002FABD1206802F00CFD40034FF000093B
:100D00005CD5206802F0DDFC0746002654E0F807B9
:100D100050D0F1B2206802F0E2FC8046C00723D038
:100D200006F00F020AFA02F0D5F834288243C5F81B
:100D3000342805EB4610C0F808A9206901280FD116
:100D4000C6EBC60004EB8000D0E911211144816498
:100D500036B9206D20B920680121009A02F000FB0D
:100D6000F1B22046FFF7E9FD5FEA087003D505EB15
:100D70004611C1F808B95FEAC86004D505EB461111
:100D80001020C1F808095FEA486004D505EB461158
:100D90004020C1F808095FEA887004D505EB4611C8
:100DA0000220C1F808095FEA086003D531462046F1
:100DB00000F0A8FF7F08761C002FA8D1206802F061
:100DC000A8FC002811DAD5F8040820F00100C5F8C5
:100DD000040894F8F403012829D0204600F0BCF957
:100DE0002068416901F000414161206802F091FCF6
:100DF00000050BD5D5F80808C00702D0204600F042
:100E0000EFF92068416901F400614161206802F056
:100E100080FCC00468D5D5F8040820F00100C5F8AE
:100E200004081021206802F029FC002127E084F842
:100E3000F49300212046FFF755FDD1E705EB411063
:100E40004FF67F32C0F80829D0F8003923F4001398
:100E5000C0F80039D0F8003943F00063C0F8003919
:100E6000C0F8082BD0F8002B22F40012C0F8002B99
:100E7000D0F8002B42F00062C0F8002B491C6068DB
:100E80008842DBD8D5F81C0840F00110C5F81C08D2
:100E9000206B60B1D5F8840840F00B00C5F88408D9
:100EA000D5F8440840F00B00C5F844080CE0D5F82C
:100EB000141842F22B000143C5F81418D5F8100895
:100EC00040F00B00C5F81008D5F8000820F4FE60CB
:100ED000C5F80008217C2068009A02F041FA2068D9
:100EE000416901F480514161206802F012FC8004E4
:100EF00015D5206802F002F8206802F0D1FBE0600E
:100F000000F020FA0146227B206802F03DFC2046DA
:100F100000F00CF92068416901F40051416120683A
:100F200002F0F7FB000707D5204600F019F920680A
:100F3000416901F008014161206802F0EAFBC0024A
:100F400008D50021204600F035F82068416901F4F9
:100F500080114161206802F0DCFB800208D500218D
:100F6000204600F02BF82068416901F4001141612E
:100F7000206802F0CEFB400007D52046FFF7D9FCE1
:100F80002068416901F080414161206802F0C1FBA5
:100F900040070AD520684568680702D52046FFF754
:100FA000DFFC2068416829434160BDE8FC9F0000E8
:100FB0000A30544FD0F8040401F0BCBCD0F804044B
:100FC00001F0BABC2DE9F0418AB0040005D094F8D4
:100FD000BD032668002520B108E001200AB0BDE865
:100FE000F08184F8BC53204600F05EF8032084F8BA
:100FF000BD03F06BC00500D42561206802F01EF926
:1010000004F11001282288466846FFF76CF994E83D
:101010000F0001F081FF0226C8BB0021206802F00A
:101020008AFB002001270EE0C0EBC00104EB810128
:1010300081F83D7001F83C0FC880CD708D60CD60A7
:10104000401CC0B24D6161688142EDD8002011E0C2
:10105000C0EBC00104EB810181F8FD5181F8FC0176
:1010600081F8FF51C1F80452C1F80852401CC0B2C7
:10107000C1F8105261688142EAD828224146684688
:10108000FFF731F994E80F0002F01EF810B184F870
:10109000BD63A2E784F8385084F8BD73206802F07D
:1010A00005F800209AE7000010B586B00446142128
:1010B0006846FFF731F92068B0F1A04F2FD11948E9
:1010C0000021026842F001020260006800F00100A5
:1010D00005904FF4C05000900220CDE9010103209B
:1010E00003900A20049069460F48FFF779FA0D48EB
:1010F000001D016841F0800101600A481430016858
:1011000041F4804101600068002200F480400590B5
:1011100011464320FFF7B4FB4320FFF7A3FB06B0C3
:1011200010BD0000303802400000024070B5044697
:10113000C068012570B1022801D0FFF7C1F9294626
:10114000D4F8040401F04EFCD4F80404BDE8704067
:1011500001F009BC0025F2E7D0F8040401F02CBC32
:10116000D0F8040401F032BC10B5044690F8BC037A
:1011700001280BD0012084F8BC0384F838102068C3
:1011800002F0F0FA002084F8BC0310BD022010BD6C
:10119000D0F8042400F57171104601F02FBC10B591
:1011A0000446006894F8BC13012906D0012184F894
:1011B000BC13A16A012902D008E0022010BDA16978
:1011C000012903D0816B41F480318163206802F0F2
:1011D0003FFA206801F05CFF002084F8BC0310BDDA
:1011E00010B50446D0F8040401F04AFC2068D0F899
:1011F000001E41F00101C0F8001E206A002804D042
:101200000248016841F00601016010BD10ED00E0E8
:101210002DE9F0470E46050065D0DFF81481D8F8B7
:101220000000F7B200F00F00B04207D288F800705B
:10123000D8F8000000F00F00B04254D128683D4CAF
:10124000810712D5400703D5206840F4E0502060A4
:101250002878000703D5206840F4604020602068AB
:10126000A96820F0F000084320602878C0072DD03E
:10127000304968680839012812D0022813D00328A1
:1012800011D00968890700292DDA216821F00301AE
:1012900001432160FFF786FA814641F2883A0EE069
:1012A00009688903EFE709688901ECE7FFF77AFA33
:1012B000A0EB0901514502D90320BDE8F087206861
:1012C000696800F00C00B0EB810FEFD1D8F8001086
:1012D000404601F00F01B14207D90770006800F0E5
:1012E0000F00B04201D00120E7E72878400705D57C
:1012F0002068E96820F4E05008432060287800075F
:1013000006D52068296920F4604040EAC1002060C9
:1013100000F01EF82168084AC1F30311515CC8406F
:101320000649086006480068FFF764FA0020C4E731
:10133000003C024008380240305200088000002083
:1013400078000020014800687047000080000020FD
:10135000154810B5006810F00C02144813D0144959
:10136000042A0FD0082A0ED10F4C241F22682368AC
:1013700002F03F025B0207D52068C0F38810A0FB93
:10138000010106E0084610BD2168C1F38811A1FBE8
:1013900000010023FEF776FF2168C1F30141491CDB
:1013A0004900B0FBF1F010BD083802400024F40001
:1013B000001BB7002DE9F84F04006ED02078DFF84D
:1013C0003C93C007A9F104054AD009F10400016863
:1013D000C1F38101012908D00068C0F3810002280F
:1013E0000AD1D9F80000400206D52868800337D515
:1013F00060680028E1D033E06068B0F5803F10D02D
:10140000B0F5A02F286810D020F48030286028681C
:1014100020F4802028606068A8B1FFF7C3F9064671
:101420000DE0286840F48030F4E740F48020286024
:10143000F7E700BFFFF7B6F9801B642873D8286868
:101440008003F7D50CE0FFF7ADF9064605E000BFD5
:10145000FFF7A8F9801B6428F0D828688003F7D428
:101460002078DFF89C8280074FF0000A3ED5A34821
:10147000001D016811F00C0F08D00068C0F3810056
:1014800002280BD1D9F80000400207D42868800751
:1014900016D5E068012800D112E02BE1E068B8B170
:1014A0000120C8F80000FFF77DF9064605E000BFFF
:1014B000FFF778F9801B0228C0D828688007F7D585
:1014C0002868216920F0F80040EAC10028600DE09A
:1014D000C8F800A0FFF766F9064604E0FFF762F9D6
:1014E000801B02281FD828688007F7D420780007BF
:1014F00022D5824E83486169703671B10121016045
:10150000FFF750F9074604E0FFF74CF9C01B02282B
:1015100009D830688007F7D50EE0C0F800A0FFF7C3
:1015200041F9074605E082E0FFF73CF9C01B0228BD
:101530007DD830688007F7D42078400768D5DFF879
:10154000BCB100270BF13C0BDBF80000C0000BD452
:10155000DBF8001041F08051CBF80010DBF8000000
:10156000012700F080500090674E3068C00510D40D
:10157000306840F480703060FFF714F9009005E0A7
:10158000FFF710F90099401A022850D83068C005BA
:10159000F6D55A4EA0686C3601280FD00528306861
:1015A00010D020F001003060306820F0040030607E
:1015B000A068B8B1FFF7F6F800900FE0306840F08F
:1015C0000100F4E740F004003060F7E7FFF7EAF8C5
:1015D0000099411A41F28830814266D8306880070C
:1015E000F4D50EE0FFF7DEF8009007E0FFF7DAF839
:1015F0000099411A41F28830814256D830688007FC
:10160000F4D42FB1DBF8001021F08051CBF800109A
:10161000A069C8B33949091D0968C1F381010229CC
:101620004AD00228504607D0C8F8600000E03CE0ED
:10163000FFF7B8F804463BE04746C8F86000FFF7FC
:10164000B1F8064605E000BFFFF7ACF8801B0228A2
:101650002BD828688001F7D4D4E907010843A16A90
:101660002A4A490802EB0141626A41EA82110843B1
:1016700094F82C1040EA0161C9F800100120386686
:10168000FFF790F8044606E036E000BFFFF78AF85F
:10169000001B022809D828688001F7D52CE000BF7C
:1016A000FFF780F8001B022802D90320BDE8F88F5D
:1016B00028688001F4D41FE00128F7D0D9F8000091
:1016C000E26900F48001914214D1226A00F03F01E6
:1016D00091420FD147F6C071626A0140914209D12F
:1016E000A26A00F44031914204D1E16A00F07060D6
:1016F000884201D00120D9E70020D7E70438024012
:1017000000004742800E4742007000400000FFFF8B
:1017100010B5401EB0F1807F01D3012010BD4FF005
:10172000E02460610F21601702F0B5F80020A0618D
:1017300007202061002010BD10B5040003D094F8EC
:101740003D0010B107E0012010BD002084F83C00EE
:10175000204600F00DF8022084F83D00211D20688D
:1017600000F094FB012084F83D00002010BD000033
:1017700008B500680649884208D10648016841F06A
:1017800040010160006800F04000009008BD0000CA
:10179000001800404038024070B5044690F83C0004
:1017A000012817D0012584F83C50022084F83D0020
:1017B0002068826822F0770222F47F428260086803
:1017C000502830D00DDC20284DD005DC98B31028EF
:1017D0003BD148E0022070BD302844D0402834D1AD
:1017E00039E0602828D0702806D0B0F5805F2CD072
:1017F000B0F5005F29D10AE0CB68D1E9012120686A
:1018000000F0A8FB2068816841F0770109E0CB680F
:10181000D1E90121206800F09DFB2068816841F436
:101820008041816011E0CA684968206800F066FC68
:101830005021206807E016E0CA684968206800F077
:101840006EFC6021206800F08FFB84F83D50002082
:1018500084F83C0070BDCA684968206800F04EFCFE
:1018600040212068EFE7226801461046EBE70000C0
:1018700010B586B0044614216846FEF74DFD0E49AA
:101880002068884215D10D480021026842F080028C
:101890000260006800F08000059040200090022067
:1018A000CDE901010920CDE9031069460448FEF79E
:1018B00097FE06B010BD000000180040303802400E
:1018C000001C024070B5044690F83C000D4601280B
:1018D0000DD0012684F83C60022084F83D0042B11E
:1018E000042A18D0082A2AD00C2A4DD139E0022027
:1018F00070BD206800F040FB2068816941F008015C
:1019000081612068816921F0040181612068816919
:101910002A69114311E0206800F05EFB20688169AC
:1019200041F4006181612068816921F480618161F5
:10193000206881692A6941EA0221816124E02068E6
:1019400000F080FB2068C16941F00801C161206896
:10195000C16921F00401C1612068C1692A6911438C
:1019600011E0206800F0A2FB2068C16941F4006129
:10197000C1612068C16921F48061C1612068C169C9
:101980002A6941EA0221C16184F83D60002084F89F
:101990003C0070BD10B5040003D094F83D0010B1B8
:1019A00007E0012010BD002084F83C00204600F034
:1019B0000CF8022084F83D00211D206800F066FA32
:1019C000012084F83D00002010BD7047FEE70000B4
:1019D000F0B500230A24302537261F4611E000BF4A
:1019E000B4EB107F02D905EB107C01E006EB107C14
:1019F00001F813C001EB430C00015B1C8CF8017073
:101A0000DBB29342ECD3F0BD10B50B4A00210B487A
:101A100002F026F80A4C084A0021206024320948C6
:101A200002F01EF8044A606048320021064802F0C5
:101A300017F8A06010BD0000C4510008C71D0008C1
:101A400004000020D53800089D4300082DE9F04728
:101A500086B014216846FEF75FFC38480024016810
:101A600041F001010160016801F001010591016887
:101A700041F080010160016801F080010591016879
:101A800041F040010160016801F0400105910168E9
:101A900041F002010160016801F002010591016855
:101AA00041F010010160016801F010010591016829
:101AB00041F0200101600068DFF8848000F0200020
:101AC0004FF4FF750590012229464046FEF764FE5B
:101AD0000122DFF87090D60231464846FEF75CFEE0
:101AE0000122DFF864A0970339465046FEF754FE02
:101AF00000950125CDE90154694640460394FEF75F
:101B00006FFD042000901148CDE901056946104899
:101B1000FEF766FD0096CDE90154694648460394F8
:101B2000FEF75EFD0097CDE90154694650460394E7
:101B3000FEF756FD06B0BDE8F087000030380240E1
:101B40000018024000100240001402400000311052
:101B50000004024010B58CB0002407940894099446
:101B60001C2168460A94FEF7D7FB19481749C0E9BB
:101B7000001442F20F71C0E9024104618461FFF771
:101B8000DBFD08B1FEF79CFC4FF48050079007A9DD
:101B90000F48FFF701FE08B1FEF792FC0C48FFF773
:101BA000F9FE08B1FEF78CFC6020CDE90004029438
:101BB0000022694606480494FFF784FE08B1FEF748
:101BC0007FFC0348FFF754FE0CB010BD0018004026
:101BD0005802002010B500220F49104800F09FFD68
:101BE00008B1FEF76DFC0E490C4800F071FF08B11A
:101BF000FEF766FC0B49094800F09DFB08B1FEF7B3
:101C00005FFC064800F0DEFF002803D0BDE810406E
:101C1000FEF756BC10BD0000100000209802002006
:101C2000D801002060000020FEE770470148FEF761
:101C3000A7BF0000680500202DE9F04103680D46AC
:101C400004461E6C03EB4511D1F8080BD4F810E0E4
:101C50004FF400474FF0200C04F57172BEF1010FF4
:101C600009D0DFF898E0764539D1020432D500BFBB
:101C7000C1F8087B3FE0224B5FEA007E04D59E421C
:101C800039D90004F4D436E05FEA806E02D5C1F899
:101C900008CB30E010F0280F2DD19E4201D900046E
:101CA000E6D4C5EBC50004EB8000D1F8101BD0F8DA
:101CB0000432C1F31201591AC0F81412D0F80812F4
:101CC0001944C0F8081295B9D4F8100278B9012166
:101CD00020680AE080060AD5C1F808CB07E035B9CC
:101CE000D4F8100218B90021184601F039FBE9B206
:101CF0002046FEF72BFE0020BDE8F0810A31544F4C
:101D00000A30544F2DE9F84F0E46C1EBC60100EBE7
:101D1000810481460568D4E914103C34884202D914
:101D20000120BDE8F88F081AA168814200D2084658
:101D3000C01C870805EB46181BE000BFA0EB010A9A
:101D4000A068504500D282460AF10300870899F83E
:101D5000100000901FFA8AF3F2B22846E16801F001
:101D600087FDE16801EB0A00E060A16901EB0A0070
:101D7000A061D8F8180980B2B84205D3D4E90501AA
:101D8000814201D20028D9D1D4E90501884208D87E
:101D900006F00F0101208840D5F834188143C5F8BA
:101DA00034180020BDE70000034801210170002124
:101DB0004170817070470000000000200178407879
:101DC00041EA00207047FFF705FF012001F0F6FD12
:101DD000FBE710B5FEF7ECFC03F03EF8012803D05A
:101DE000BDE8104002F06EBD10BD000030B593B0EC
:101DF00030216846FEF790FA14210CA8FEF78CFA01
:101E000019480025016841F080510160006800F028
:101E1000805011901548016841F4804101600068CC
:101E2000022400F4804011900120009000040190F1
:101E30008001CDE9064006200890A820CDE90904DC
:101E400007200B906846FFF7B5FA0CA90F2081E830
:101E500031004FF4A0500F90E002109005210CA823
:101E6000FFF7D6F913B030BD403802400070004093
:101E70000548016841F47001016003494FF00060BA
:101E8000803908607047000088ED00E0F0B5026816
:101E9000254C264D264E274F274B4FF0804CA04215
:101EA00009D0604507D0A84205D0B04203D0B8425F
:101EB00001D0984204D122F0700E4A6842EA0E0224
:101EC000A0421BD0604519D0A84217D0B04215D00F
:101ED000B84213D0984211D0184DA8420ED0184DD8
:101EE000A8420BD0174DA84208D0174DA84205D0E4
:101EF000164DA84202D0164DA84203D122F44075D7
:101F0000CA682A434D6922F080022A4302608A6827
:101F1000C2620A688262A04201D0984201D1096976
:101F2000016301214161F0BD000001400004004057
:101F300000080040000C0040000401400040014047
:101F4000004401400048014000180040001C0040CF
:101F50000020004010B5846842EA032224F47F4444
:101F60000A432243826010BD826822F070020A4355
:101F700042F0070181607047F0B5026A22F0010269
:101F80000262036A42688469124E24F073050C6889
:101F90002C4323F002058B682B430D4DA84201D042
:101FA000B04205D123F00807CB683B4323F004037C
:101FB000A84201D0B04205D14D6922F440721543C8
:101FC0008A692A4342608461496841630362F0BDC3
:101FD0000000014000040140F0B5026A22F0100246
:101FE0000262026A436884690D6824F4E64444EAA4
:101FF00005248D6822F0200242EA05120F4D104E92
:10200000A84201D0B04206D1CF6822F0800242EA55
:10201000071222F04002A84201D0B04207D14D6918
:1020200023F4406343EA85038D6943EA85034360F3
:102030008461496881630262F0BD000000000140D4
:1020400000040140F0B5026A22F480720262026A62
:102050004368C46922F4007224F073050C68124EC0
:102060002C438D6842EA05220E4DA84201D0B042B1
:1020700006D1CF6822F4006242EA072222F480628D
:10208000A84201D0B04207D14D6923F4405343EA3E
:1020900005138D6943EA05134360C4614968C16350
:1020A0000262F0BD000001400004014030B5026A48
:1020B00022F480520262046A4268C3690D6823F404
:1020C000E64343EA05238D6824F4005444EA0534CA
:1020D000084DA84202D0084DA84204D14D6922F40F
:1020E000804242EA85124260C36149680164046229
:1020F00030BD0000000001400004014010B5036A3B
:10210000046A24F001040462846924F0F00444EABF
:10211000021423F00A020A438461026210BD10B562
:10212000036A23F0100303628369046A23F4704393
:1021300043EA023224F0A00343EA01118261016202
:1021400010BD2DE9F0410C46D0F8C432D0F8BC12D5
:10215000F9B104EB840200EB8202002695694DB1CF
:10216000C4EBC40703EB87035B6CB5FBF3F703FB1E
:10217000175383B1C1F81462D0F8C002D1F80852E5
:1021800022460369284601F5047198470020BDE8FE
:10219000F0810320FBE7002396611A46214600F0F8
:1021A00078FCF3E770B5D0F8BC4205466CB100F09E
:1021B0007CFBC4F80C02D5F8C012D4F80402CA683B
:1021C00004F503719047002070BD032070BD70B509
:1021D00004460026812100F0C5FA0025258701214B
:1021E000204600F0BFFAA4F878518221204600F082
:1021F000B9FAA4F84C50A4F84E50D4F8BC0248B137
:10220000D4F8C00204F52F7440688047206801F0BC
:1022100067FB2560304670BD10B5D0E9AF4159B1BC
:1022200094F80002FF2807D08B6894F80122214619
:102230009847FF2084F80002002010BD0A21018089
:10224000004870470001002043210180004870478A
:102250005001002043210180004870470C010020FC
:102260004321018000487047940100202DE9F04788
:1022700004464FF4077001F06BFB05004FF00007B8
:1022800035D0C4F8BC52207C4FF010084FF40079D0
:10229000012680B3402302228121204600F04EFB1C
:1022A0002687402302220121204600F047FBA4F8A4
:1022B0007861A4F84E80082303228221204600F092
:1022C0003DFBA4F84C60D4F8C00200688047C5F814
:1022D0001472C5F81872207CD5F80422A8B14023E6
:1022E0000121204600F036FB0020BDE8F0870220E7
:1022F000C4F8BC72F9E7FFE74B4602228121204671
:1023000000F01CFB26874B46CCE74B46E8E710B5B0
:10231000D0F8BC1251B1027C002AD1F8042207D0B7
:102320004023012100F016FB002010BD032010BD4A
:102330004FF40073F5E719B1C0F8C01200207047E0
:1023400003207047D0F8BC02C0F804120020704788
:10235000D0F8BC02C0F81022C0F808120020704764
:102360002DE9FC410546D0F8BC7200208DF8000034
:10237000ADF80400064608780C4610F0600121D044
:1023800020293DD1E288AAB10006607807D5D5F8AA
:10239000C0128B6839469847E288394628E087F8AA
:1023A0000002A07987F80102E2883946284600F049
:1023B0006DF82AE0D5F8C012607800228B682146BB
:1023C000984722E0607830B101281ED00A2809D051
:1023D0000B2815D110E095F89C02032810D1022299
:1023E00001A905E095F89C02032809D1012269465C
:1023F000284600F065F808E095F89C02032804D010
:102400002146284600F037F803263046BDE8FC8117
:1024100010B5D0F8BC12012219B1D1F8143213B1A1
:102420000FE0032010BD0122C1F81422D1F81022C0
:10243000C262D1F81032D1F80822812100F029FBC4
:102440000022104610BD10B5D0F8B8220AB152686B
:102450009047002010BD134610B50A46002100F039
:1024600079FA002010BD134610B50A46002100F08D
:1024700010FB002010BD10B50446802100F0EEFADC
:102480002046BDE81040002100F0E8BA10B5032353
:10249000C0F85821C0F89432C0F85C2113460A46AF
:1024A000002100F057FA002010BD10B505210023CF
:1024B000C0F894121A46194600F04CFA002010BDDC
:1024C00010B502238261C0F89432C26113460A46F5
:1024D000002100F0DEFA002010BD10B50421002319
:1024E000C0F894121A46194600F0D3FA002010BD25
:1024F00010B50A46024903A000F0E1F8004810BDFB
:102500007009002043444320436F6E6669670000F2
:1025100012200880004870473000002010B50A469D
:10252000024903A000F0CBF8004810BD700900205C
:1025300043444320496E7465726661636500000020
:1025400004200880004870472C00002010B50A467F
:10255000024903A000F0B3F8004810BD7009002044
:1025600053544D6963726F656C656374726F6E6905
:102570006373000010B50A46024903A000F09FF8FB
:10258000004810BD7009002053544D333220566965
:10259000727475616C20436F6D506F72740000002F
:1025A00010B51A2008800A480168001D0468001D43
:1025B0000068081809D008220649FFF709FA0549FA
:1025C000042210312046FFF703FA0248801E10BD96
:1025D000107AFF1F46000020F8B504460020ADF831
:1025E000000048880D46010A08295FD2DFE801F0A3
:1025F0005E0409175E5E3C45D4F8B412207C0A687C
:1026000019E0207C02260028D4F8B80205D0C16A5F
:10261000684688470146467039E0816AF8E7C0B2EB
:10262000062843D2DFE800F0030A1014181CD4F87F
:10263000B402426805E0694690471CE0D4F8B40251
:10264000826892B3207CF6E7D4F8B402C268F8E757
:10265000D4F8B4020269F4E7D4F8B4024269F0E7AE
:10266000D4F8B4028269ECE7207CF0B9D4F8B8025F
:10267000416B68468847014609E0207CA8B9D4F838
:10268000B802016B68468847014607204870EA880F
:102690008AB1BDF8000040B1824200D90246ADF8CF
:1026A00000202046FFF70CFFF8BDFFE72946204633
:1026B000FFF7E1FEF8E72046FFF70FFFF4E770B5FC
:1026C000002300281ED00025044602E06D1CEDB258
:1026D000641C2678002EF9D1022404EB45041480F2
:1026E0001278CA545B1C0322CA5400245B1C06E007
:1026F000CA545B1CDAB28C54521CD3B2401C027810
:10270000002AF5D170BD01004FF0000004D001296E
:1027100001D0022901D0032070470120704730B456
:10272000A0B1D0F8B84200230CB1C0F8B832D0F84C
:10273000CC420CB1C0F8CC3209B1C0F8B4120121BE
:1027400080F89C12027030BC00F0B4B830BC03209A
:10275000704710B5D0F8C402FEF72CF9BDE8104060
:10276000FFF7D1BF10B5D0F8C402FEF7FDF8BDE801
:102770001040FFF7C8BF70B51646044649B1D4F8FB
:10278000B80242691AB194F89C02032842D003208F
:1027900070BDD4F89412002504F11400022932D13E
:1027A000D0E902318B4206D95A1A8260314620465E
:1027B000FFF759FE0FE0994214D14068884211D3C7
:1027C000D4F8981288420DD2002211462046FFF715
:1027D0004AFEC4F8985200231A461946204600F0D3
:1027E000B9F810E0D4F8B802C16829B194F89C0295
:1027F000032801D1204688478021204600F02EF989
:102800002046FFF752FE94F8A002012806D184F872
:10281000A05203E0204690470028B9D1002070BDA7
:1028200010B51346044649B1D4F8B80282691AB10A
:1028300094F89C02032824D0032010BDD4F89412ED
:1028400004F5AA70032920D1D0E9021291420AD9D5
:102850008A1A8260C068824200D302461946204626
:10286000FFF7F9FD11E0D4F8B802016929B194F835
:102870009C02032801D1204688472046FFF72DFE01
:1028800003E0204690470028D7D1002010BD00204B
:10289000704710B5012180F89C12D0F8B82212B10F
:1028A000526801799047002010BDD0F8C402FEF7AD
:1028B000AFB8000010B5017839BB15490222C1F844
:1028C0000404C0F8C4124FF0A0400860042048601F
:1028D0000020C1E90320C1E9062008624862C862FD
:1028E00008630846FEF76EFB08B1FDF7E9FD80219D
:1028F0000748FDF7F8FF402200210548FDF7F7FFE4
:10290000802201210248FDF7F2FF002010BD0000E7
:10291000680500200A0601F07F01D0F8C402C1EB6F
:10292000C10100EB810002D590F83E00704790F89D
:10293000FE017047002070470020704710B51C460C
:102940001346D0F8C4022246FEF76BF8BDE81040EB
:10295000FFF7D9BE10B5D0F8C402FEF792F8BDE873
:102960001040FFF7D0BE70B50125044680F89C5298
:102970000020C4F894026060C4F8A402D4F8BC0239
:1029800028B1D4F8B80200214268204690470022BE
:10299000402311462046FFF7D1FF4026A4F864519A
:1029A0003346002280212046C4F86061FFF7C6FF4D
:1029B000A5840020266270BD90F89C12042903D1E2
:1029C00090F89D1280F89C120020704710B590F886
:1029D0009C12032904D1D0F8B812C96901B1884703
:1029E000002010BD01740020704710B5D0F8C4025B
:1029F000FEF7BAFBBDE81040FFF785BE70B5044690
:102A000000F2AA20054600F04DF80120C4F8940217
:102A1000B4F8B002C4F8980294F8AA0210F01F01AA
:102A20000AD001290ED0022912D000F080012046E0
:102A3000BDE8704000F012B829462046BDE870405D
:102A400000F0C2B829462046BDE8704000F0ECB95D
:102A500029462046BDE8704000F040B910B5D0F8D6
:102A6000C402FEF732F8BDE81040FFF74CBE10B5C7
:102A7000D0F8C402FEF793FBBDE81040FFF743BE59
:102A800090F89C1280F89D12042180F89C1200207E
:102A9000704710B5D0F8C402FEF751F8BDE81040F9
:102AA000FFF731BE70B5054611F8010B28700878A4
:102AB00068704C1C2046FFF781F96880A41C2046F2
:102AC000FFF77CF9A880A01CFFF778F9E88070BDBB
:102AD00038B504460020ADF8000041B1C4F8B81282
:102AE000896A68468847C4F8CC02002038BD0320B4
:102AF00038BD02460320D2F8B832002B02D01B6842
:102B000010461847704700002DE9F0410F462C4E43
:102B10008978002504463170012906D939462046B6
:102B2000FFF7A9FC0320BDE8F08194F89C0202287D
:102B30000CD003281DD039462046FFF79CFC317885
:102B40002046FFF780FC03252846ECE799B3204692
:102B50006160FFF7CEFF050004D039462046FFF73D
:102B60008AFCF1E72046FFF7B8FC032084F89C02BA
:102B7000EAE74FF00208C1B1606888421BD0C1B2D9
:102B80002046FFF760FC317820466160FFF7B1FF17
:102B9000050010D039462046FFF76DFC217920460C
:102BA000FFF751FC84F89C82CEE784F89C82204693
:102BB0006160FFF748FC2046FFF78FFCC4E7000088
:102BC000FC000020FFF753BF2DE9F0410A780025F3
:102BD00012F0600208D0202A01D0402A71D1D0F82A
:102BE000B8229268904731E04B78002201260A2BE8
:102BF00067D2DFE803F0415E6658660805662D2956
:102C0000FFF7EAFC5FE004468888D8B9C888C8B9ED
:102C10004888802816D200F07F0794F89C02032889
:102C200010D084F89E7239462046FFF7DEFE20461B
:102C3000FFF753FC1FB1022084F89C0243E084F8A4
:102C40009C6240E020463CE0FFF75EFF05463AE02C
:102C5000CB88012B35D190F89C32012B04D0022B6C
:102C600002D0032B2DD104E08260012200F1080183
:102C700016E00122011D13E090F89C22012A03D0E6
:102C8000022A01D0032A1CD1CA88022A19D1C6609F
:102C9000D0F8A41209B10321C160022200F10C0195
:102CA000FFF70EFC0FE0498801290CD1C0F8A4629F
:102CB00011E090F89C32012B08D0022B06D0032B98
:102CC00004D0FFF7D8FB2846BDE8F08149880129E8
:102CD000F9D1C0F8A422FFF700FCF4E72DE9F04198
:102CE0000D46044628780027097910F060000BD0C3
:102CF000202801D0402873D1D4F8B8022946826830
:102D00002046904707468CE06878D8B3012822D047
:102D1000032865D194F89C02022802D003287CD1B4
:102D20000BE0002979D0802977D02046FFF796FE66
:102D300080212046FFF792FE73E0688838B931B1F0
:102D4000802904D0E88810B92046FFF787FE204686
:102D5000FFF7C3FB65E094F89C020228E1D003284A
:102D60005BD16888D8BB480602D02046FFF7F1FC4B
:102D70002046FFF7B2FBD4F8B80229468268204605
:102D800090474EE0FFE794F89C020026022802D00C
:102D9000032842D111E009B180293ED1080601F093
:102DA0007F0000EB800004EB800101D5143101E0CD
:102DB00001F5AA7102220E602BE0080601F00F0057
:102DC00000EB800004EB80000BD5808C40B101F05B
:102DD0007F0000EB800004EB800514350CE020E060
:102DE0001BE0B0F86401C0B101F07F0000EB80008F
:102DF00004EB800505F5AA7541B1802906D020466F
:102E0000FFF788FD10B10120286000E02E6002224B
:102E100029462046FFF754FB03E029462046FFF7EA
:102E20002AFB3846BDE8F08170B5064608780024D4
:102E30000D4610F0600003D0202801D0402817D1A3
:102E400096F89C02012803D0022801D003280FD154
:102E5000287901280CD8D6F8B80282683046904705
:102E60000446E888204306D13046FFF736FB02E0EF
:102E70003046FFF700FB204670BD000070B50A78B1
:102E8000012302F00F054E78AB401B4CD0F81C58C4
:102E9000012E17D045EA0343C0F81C3800EB42105E
:102EA000D0F8002B12040BD4D0F8002B0B89C97872
:102EB000C3F30A031A4344EA81410A43C0F8002BD2
:102EC000002070BD9BB21D43C0F81C5800EB42109F
:102ED000D0F800391B04F3D4D0F800390D89C97833
:102EE000C5F30A0589042B4341EA82510B4323436E
:102EF000C0F80039E4E7000000800010D0F80019A5
:102F00006FF30A01C0F80019D0F8041841F4807179
:102F1000C0F804180020704770B5044606990A9E50
:102F2000049D0D98012916D0E06840F04000E06053
:102F3000204600F02BF8A16B1EB321F48031A16371
:102F4000012D07D1A16841F00601A160A16841F0FF
:102F50002001A16070BDA16B21F48031A163E16803
:102F6000094A1140E160E16821F44011E160012863
:102F700003D1E06840F48010E060204600F006F8DD
:102F8000DEE741F48031DAE7BFFFBDFF01220C49E3
:102F900002E0521C8A420BD80369002BF9DA02695D
:102FA00042F001020261012204E0521C8A4201D96E
:102FB000032070470369DB07F7D10020704700004A
:102FC000400D030030B54C780A78012300EB421223
:102FD000012C2CD0D2F8004B002C0BDAD2F8004B8D
:102FE00044F00064C2F8004BD2F8004B44F0804437
:102FF000C2F8004BD0F83C580C7804F00F0403FAE8
:1030000004F425EA0444C0F83C48D0F81C48097888
:1030100001F00F018B4024EA0341C0F81C18D2F8DC
:10302000000B19490840C2F8000B002030BDD2F84F
:103030000049002C0BDAD2F8004944F00064C2F8D1
:103040000049D2F8004944F08044C2F80049D0F861
:103050003C480D7805F00F0503FA05F5ADB2AC4319
:10306000C0F83C48D0F81C48097801F00F018B40AB
:1030700099B28C43C0F81C48D2F8000903490840B3
:10308000C2F80009D1E700000078F3EF007833ECD4
:10309000D0F8001E21F00301C0F8001ED0F804187B
:1030A00021F00201C0F8041800207047D0F8001E7B
:1030B00021F00301C0F8001ED0F8041841F002010D
:1030C000C0F80418002070472DE9F04F00250E4687
:1030D0000446DDF82CC0DDF824B0109F28462946B0
:1030E00004EB8002C2F80411401C0F28F8D32046DC
:1030F000C7B1806B20F40012A263A06B40F40022E1
:10310000A26308468846C4F8000ED4F8001820468A
:10311000C4F80018BCF1010F16D0D0F8001841F027
:10312000030116E0D0F8040840F00202C4F80428B5
:10313000A06B40F40012A263A06B20F40022A263F3
:10314000A06B20F48022DBE7D0F800180BB141F02F
:103150000101C0F80018102100F090FA00B101251B
:10316000204600F07BFA00B101254046C4F81088E3
:10317000C4F81488C4F81C8800214FF000694FF08F
:10318000904A4FF67F3314E004EB4112D2F800C9A5
:10319000BCF1000F06DA11B1C2F800A904E0C4F8CE
:1031A000009901E0C2F80009C2F81009C2F8083914
:1031B000491C8E42E8D8002115E000BF04EB411203
:1031C000D2F800CBBCF1000F06DA11B1C2F800ABA7
:1031D00004E0C4F8009B01E0C2F8000BC2F8100B39
:1031E000C2F8083B491C8E42E8D8D4F8101821F4E4
:1031F0008072C4F81028A0616FF080406061BBF15C
:10320000000F03D1A06940F01000A061A069094936
:103210000843A0610C9818B1A06940F00800A061B3
:10322000012F03D1A06904490843A0612846BDE8E5
:10323000F08F000000383C8004000040816821F0DD
:10324000010181600020704770B50D784E78434CC5
:10325000EBB200EB4313012E1FD0D3F8100B6FF32A
:103260001200C3F8100BD3F8100B2040C3F8100B5A
:10327000486908B188684861D3F8100B40F4002011
:10328000C3F8100BD3F8100B8C68C4F3120420435E
:10329000C3F8100B012A55D058E04E69002ED3F820
:1032A000106932D06FF31206C3F81069D3F81069B1
:1032B0002640C3F810694E698C68A64200D94C615B
:1032C000D3F8104944F40024C3F81049D3F8104946
:1032D0004E69C6F312063443C3F81049012A22D0BE
:1032E00000EB4512D2F8003943F00443C2F800392C
:1032F0004A6932B3D0F83428097801F00F0301216C
:1033000099400A43C0F8342826E02640C3F81069E3
:10331000D3F8104944F40024C3F81049D3F81049F5
:103320006FF31204D8E7096919B100EB4512C2F82E
:10333000141900EB4510D0F8001941F00441C0F811
:10334000001909E0C86808B1C3F8140BD3F8000BE2
:1033500040F00440C3F8000B002070BDFFFF07E001
:1033600010B5036C134CA34203D9D0F8003B002BDB
:103370001EDB0023C0F8103BD0F8103B43F40023C1
:10338000C0F8103BD0F8103B43F01803C0F8103BD6
:10339000D0F8103B43F0C043C0F8103B012907D1DF
:1033A000C0F8142BD0F8001B41F08021C0F8001B9E
:1033B000002010BD0A30544F4A780B78012A00EBE8
:1033C00043100BD0D0F8002B22F40012C0F8002BD1
:1033D000C978032914D0022912D017E0D0F80029A7
:1033E00022F40012C0F80029C978032901D002296B
:1033F0000CD1D0F8001941F08051C0F8001905E057
:10340000D0F8001B41F08051C0F8001B002070472D
:103410000A784B78D1B200EB4110012B12D0D0F8D2
:10342000001B002906DB2AB1D0F8001B21F08041E7
:10343000C0F8001BD0F8001B41F40011C0F8001BBD
:1034400000207047D0F80019002906DB2AB1D0F817
:10345000001921F08041C0F80019D0F8001941F49A
:103460000011C0F80019EBE7F8B50C784F78774DEC
:10347000E3B26FF0604600EB4313012F26D0D3F880
:10348000104B6FF31204C3F8104BD3F8104B2C40C1
:10349000C3F8104B4C69002C74D08D682C44641E0A
:1034A000B4FBF5F4D3F8105BA4B206EAC446354386
:1034B000C3F8105BD3F8105B8E686643C6F3120442
:1034C0002543C3F8105B012A71D0A6E04F691FB3F2
:1034D000D3F810796FF31207C3F81079D3F8107985
:1034E0002F40C3F810794F698D682F447F1EB7FBBA
:1034F000F5F506EAC545D3F810693543C3F8105908
:10350000D3F810594E69C6F312063543C3F8105963
:10351000CD78012D10D01BE0D3F810692E40C3F8F0
:103520001069D3F8105945F40025C3F81059D3F8A1
:1035300010596FF3120509E0D3F8105925F0C04572
:10354000C3F81059D3F8105945F00055C3F8105975
:10355000012A18D000EB4413D3F8004944F0044486
:10356000C3F80049CC78012C2FD04A6962B3D0F857
:103570003428097801F00F03012199400A43C0F86B
:10358000342860E036E00A691AB100EB4413C3F84E
:103590001429C97801290FD1D0F80818C90500EB02
:1035A0004411D1F8002903D442F0005202E030E087
:1035B00042F08052C1F8002900EB4410D0F8001905
:1035C00041F00441C0F800193DE0D0F80848E40596
:1035D000D3F8004902D444F0005401E044F0805490
:1035E000C3F8004900928A8A93B20A78C96800F049
:1035F0003FF928E0D3F8104B8D68C5F312052C4332
:10360000C3F8104BD3F8104B44F40024C3F8104B0C
:1036100059E7CA680AB1C3F8142BC97801290CD13B
:10362000D0F80808C005D3F8000B02D440F00050D1
:1036300001E040F08050C3F8000BD3F8000B40F0DD
:103640000440C3F8000B0020F8BD0000FFFF07E0B6
:10365000816841F001018160002070470021102243
:103660000261054A491C914201D903207047036950
:10367000DB06F7D400207047400D03000022202312
:1036800043EA811101610549521C8A4201D9032094
:10369000704703699B06F7D400207047400D030074
:1036A000D0F8080810F0060004D0022803D006283D
:1036B00001D00F20704702207047406900F00100E0
:1036C0007047D0F81818D0F81C08084080B270472E
:1036D000D0F81818D0F81C080840000C704710B536
:1036E000D0F81038D0F8342801F00F0400EB411066
:1036F000E24002F00102D0F8080943EAC212104089
:1037000010BD00EB4111D1F8081BD0F81408084097
:1037100070474169806908407047D21C10B5930812
:10372000002200F5805002E00468521C10C19A4249
:10373000FAD3084610BD10B5C26822F0C042C2607C
:10374000012902D029B1012010BDC16841F000510A
:1037500002E0C16841F08041C1603220FCF72EFFD9
:10376000002010BDD0F8002822F4FE62C0F8002826
:10377000D0F800284FF4FE6303EA01110A43C0F8B1
:103780000028002070470000022A3ED1264A274B1D
:103790000A449A4201D20F2138E0254A254B0A44B7
:1037A0009A4201D20E2131E0234A244B0A449A4224
:1037B00001D20D212AE0224A224B0A449A4201D228
:1037C0000C2123E0204A214B0A449A4201D20B21CA
:1037D0001CE01F4A1F4B0A449A4201D20A2115E0FD
:1037E0001D4A1E4B0A449A420FD31D4A1D4B0A44E0
:1037F0009A4201D2082109E01B4A11441B4A914216
:1038000001D2072102E0062100E00921C26822F46A
:103810007052C260C2684FF4705303EA81210A43B8
:10382000C260002070470000405327FF00350C00A5
:10383000401E1BFF40420F0000DC0BFF804F1200B8
:10384000808CF9FE20D6130060B6E5FE60E316001A
:1038500000D3CEFE40771B00C05BB3FEC0912100B9
:1038600000CA91FE20753800E05459FEE09C4100EA
:1038700010B5029C64B9DB1C9C0800EB02300023ED
:1038800000F5805002E004C902605B1CA342FAD339
:10389000002010BDFEE70907090E002804DB00F137
:1038A000E02080F80014704700F00F0000F1E020E5
:1038B00080F8141D704702E008C8121F08C1002AD2
:1038C000FAD170477047002001E001C1121F002AA1
:1038D000FBD1704710B5012000F070F8FBE7000045
:1038E00010B5002821D0114B0022001F196803E0F9
:1038F000814203D80A4649680029F9D152B11368B8
:10390000841A9C4204D1006818441060104602E0FA
:10391000506000E0186039B102680B1A934203D17D
:103920000B681A4402604968416010BD1002002013
:10393000FCF746FFFEF75AFAFEF788F8FEF70AF999
:1039400000F056F8FEF760F800F06CF8FEE70000B3
:10395000F0B50B30154D20F007010024144A0FE09C
:1039600003688B420BD38B4205D95E1A4318476814
:10397000C3E9006700E04368136002C004E0021D71
:1039800010680028ECD12046002802D1286808B130
:103990000020F0BD064A07481060074A121A22F0BC
:1039A0000702C0E9002401202860D7E714020020A4
:1039B000100200204C6400204874002010B5EFF382
:1039C000058179B9EFF3108111B9EFF3118119B1C4
:1039D00006490968022905D0002408B100F012FE4A
:1039E000204610BD6FF00504FAE70000D400002067
:1039F000EFF3058068B9EFF310820949086812B93E
:103A0000EFF311820AB1022803D028B14FF0FF3042
:103A100070476FF005007047012008600020704774
:103A2000D400002010B5EFF3058070B9EFF31082D9
:103A30000A49086812B9EFF311820AB1022804D0CA
:103A4000012805D04FF0FF3010BD6FF0050010BD0C
:103A50000220086000F03EFE002010BDD4000020CF
:103A60002DE9FF414FEA01034FF00005EFF3058117
:103A7000039599BBEFF3108111B9EFF3118119B1DF
:103A80001F490968022938D040B380261821002434
:103A90004AB3176807B13C4697691FB139467F1E84
:103AA000382F02D21779FF0703D0002004B0BDE8F9
:103AB000F081576907B1BE08D2F808C0BCF1000F09
:103AC0000DD0D5685C2D18D312693AB137B18DE8A5
:103AD00006103246214601F094F903900DE0D768B4
:103AE0005FB912694AB903AACDE90012B2B2214600
:103AF00001F05AF9012800D003950398D6E7000099
:103B0000D40000202DE9F041134C0F4605466669AC
:103B10002068001D00F047FC681C07D137B1216800
:103B2000BDE8F0410D48091D00F08CBC206835440B
:103B3000B5424560216805D2A068BDE8F041091D85
:103B400000F068BC6068091D00F064FC206B8542D1
:103B500000D22563BDE8F0818400002060200020B1
:103B60002DE9F041054600F079FC2D4C2069401C00
:103B7000206120682B4F10B1E06930B32BE0256045
:103B80002069012827D1002606EB860007EB80007C
:103B900000F032FC761C382EF6D3234800F02CFCC3
:103BA0002148143000F028FC1F48283000F024FC85
:103BB0001D483C3000F020FC1B48503000F01CFC3D
:103BC000194860601430A06005E02068E96AC06AA6
:103BD000884200D82560E06A401CE0626864E86AB8
:103BE000A169884200D9A06100EB800007EB80004A
:103BF000291D00F027FC00F051FCE06900280CD0E2
:103C00002068E96AC06A884207D208494FF08050AC
:103C10000860BFF34F8FBFF36F8FBDE8F0810000E6
:103C200084000020B01B00201020002004ED00E0E4
:103C300038B500F013FC104CA068C8B90F4800F06C
:103C4000DBFB0E48143000F0D7FB0C48206014302A
:103C500060600A4B00202833009003F150021021CD
:103C60000A2000F045FEA06010B105A100F094FC10
:103C7000BDE8384000F012BCC000002074200020D5
:103C8000546D72510000000030B4026C0B46002AE3
:103C90000BD0C1681144C1608468A14201D301689E
:103CA000C16030BC1846FCF71EBB30BC70472DE924
:103CB000F041856B174604460026026C82B1C7B1FD
:103CC000E068FCF710FBE168206C091AE1602268EB
:103CD000914202D2A168081AE060022F16D017E0C4
:103CE0002068A8B9A06801F02FF906460020A0605E
:103CF0000EE06068FCF7F7FA216C606808446060C9
:103D0000A168884204D32068606001E005B16D1E9F
:103D10006D1CA5633046BDE8F08110B5044690F8EF
:103D2000590058B101280CD002280FD0502080F340
:103D30001188BFF34F8FBFF36F8FFEE7206B00F04A
:103D4000C1FB2046BDE8104000F0BCBB10BD000028
:103D500010484FF47051420706D0C01D0D4920F0A5
:103D60000700411AC1F570510B4A00230144C2E912
:103D700000030839103A21F0070111604B600B6015
:103D80000B1AC0E9001393604FF000405360D060FD
:103D90007047000044280020E8000020144E154C15
:103DA000A6F29C474FF08058DFF84C9012E000BF1D
:103DB00000F054FBF068C568281D00F0F4FA206993
:103DC000401E2061E068401EE06000F067FB28466E
:103DD000FFF7A3FFE0680028EAD138680128F9D985
:103DE000C9F80080BFF34F8FBFF36F8FF2E7000079
:103DF0004C2000208400002004ED00E070B51D463A
:103E0000049C51B1C4F80020C4E90F0101212046EF
:103E100000F0A2FD84F84C5070BD2460F4E700006F
:103E20002DE9F05F8846DDE90B9415468346910045
:103E30009A460A9EA522206BFCF767FA6FF00301F1
:103E4000206B01EB8501084420F00707780707D0B5
:103E5000502080F31188BFF34F8FBFF36F8FFEE7C1
:103E60000025B8F1000F0FD05FF00000221818F8FD
:103E7000001082F8341018F8001011B1401C1028FE
:103E8000F4D384F8435001E084F83450382E00D342
:103E90003726E662C4E91365201D00F0B8FA04F184
:103EA000180000F0B4FA2461C6F138006462A06121
:103EB000656584F8585052465946384600F058FA1D
:103EC0002060B9F1000F01D0C9F80040BDE8F09FB3
:103ED00030B5114900E011460A688242FBD34B68B5
:103EE0005C18844203D1406818444860084643681F
:103EF0001C18944209D1084C103C2468A24209D0F5
:103F000052681A4442600A6812680260814200D016
:103F1000086030BD0460F9E7E800002070B50024B7
:103F200041600B4D0061914206D8D11A82699142DD
:103F300006D2011D686807E09A4203D2994201D374
:103F4000012403E0011D286800F064FA204670BDDA
:103F5000C000002010B5044600F080FAA06B28B124
:103F60005FF0000400F09AFA204610BD0124F9E742
:103F700030B589B03C4D6EE00498002806DADDE9E2
:103F80000601059A90470498002864DB069C606946
:103F900010B1201D00F007FA03A800F0D7F8024680
:103FA00004980A2857D2DFE800F00505052D334AAA
:103FB00005052D3394F8280040F0010084F828000E
:103FC0000599A069059B01442046FFF7A7FF68B348
:103FD000216A2046884794F8280040073BD50020F6
:103FE00000900598A169002342181946204601F067
:103FF000B5F8D8B9502080F31188BFF34F8FBFF3C5
:104000006F8FFEE714F8280F20F00100207022E0E7
:1040100094F8280040F0010084F828000598A06179
:1040200028B1811813462046FFF778FF13E050208F
:1040300080F31188BFF34F8FBFF36F8FFEE794F8C3
:104040002800810703D4204600F03CFA03E020F06A
:10405000010084F82800002204A9A86800F0CEFD21
:10406000002889D109B030BDC00000202DE9FC41F5
:104070000F46054600F072FB01A800F067F8044601
:10408000019818B100F0D8FFBDE8FC81254EAFB112
:1040900070680068D0B30027291B3A46B06800F06A
:1040A0008FFA00F0C9FF0028EED11F494FF0805071
:1040B0000860BFF34F8FBFF36F8FE5E7A542EBD8E2
:1040C00000F0BAFF30682746C068C468201D00F0C1
:1040D0006AF994F82800410719D5A0692B464119BF
:1040E0003A462046FFF71AFFA8B1002003460146D2
:1040F00000902A46204601F031F860B9502080F344
:104100001188BFF34F8FBFF36F8FFEE707E020F0FA
:10411000010084F82800216A20468847B4E7012777
:10412000BAE70000C000002004ED00E00648416846
:10413000096829B14168C968C9684968016370475D
:104140004FF0FF31FAE700008400002070B505460B
:1041500000F090FE064E04463069844203D200F01F
:1041600009F8012000E0002028602046346170BD7D
:10417000C0000020F8B5194D20E0C068C46806688A
:10418000201D00F010F9216A2046884794F8280085
:10419000400713D5A0693044B04206D9246160605D
:1041A000211D286800F036F908E00020034601468A
:1041B00000903246204600F0D1FF38B128680168EF
:1041C0000029DAD16968C5E90010F8BD502080F3F4
:1041D0001188BFF34F8FBFF36F8FFEE7C000002041
:1041E00008484068401C4FF0500080F3118804D00C
:1041F000BFF34F8FBFF36F8FFEE7BFF34F8FBFF358
:104200006F8FFEE7F0000020074C2068016841B185
:10421000C0680021D0F80000FFF728FFFFF7A8FED4
:10422000F3E701210020F7E7C00000202DE9F0416D
:10423000044600F013F994F9455004F1240609E00E
:10424000606A48B1304600F0BFFE08B100F008FADD
:104250006D1E6DB2002DF3DC4FF0FF3684F8456023
:1042600000F01CF900F0FAF894F9445004F110073A
:1042700009E0206948B1384600F0A6FE08B100F018
:10428000EFF96D1E6DB2002DF3DC84F84460BDE8DB
:10429000F04100F003B900002DE9F0410546002788
:1042A00000F05CFA314E306808B9FFF751FDF06854
:1042B00005424BD1C5B3083568070ED005F007009D
:1042C000C0F108000544680707D0502080F311882A
:1042D000BFF34F8FBFF36F8FFEE72DB3706885423A
:1042E00034D82248103001460C6801E020460C46C4
:1042F0006168A94202D221680029F7D131688C4255
:1043000024D007682168016060680837411B1029C4
:104310000FD96019420708D0502080F31188BFF3ED
:104320004F8FBFF36F8FFEE710E041606560FFF7CE
:10433000CFFD61687068401A7060B268904200D228
:10434000B060F06801430020C4E9000100F074FE91
:10435000780707D0502080F31188BFF34F8FBFF349
:104360006F8FFEE73846BDE8F0810000D8000020DE
:1043700010B5031F4FF080741C601B1F21F001015A
:104380001960191F044B0B6014390A60091F6FF084
:10439000020244380A6010BDE141000810B5012056
:1043A000FFF70CFBFBE7D0E9013201699A60D0E925
:1043B00001235A604A68824201D182684A60002221
:1043C00002610868401E086008687047034B03607C
:1043D00003F15C0008608020106070478C21002091
:1043E000044B036003F15C0008604FF480701060C0
:1043F00070470000E823002000F108014FF0FF3271
:10440000C0E90112C1600161002101607047002113
:104410000161704730B50B685A1C02D000F10802E8
:1044200002E0026904E02246546825689D42FAD9F8
:1044300053684B6099608A60516008610168491C4B
:10444000016030BD42684A6093688B609368596030
:10445000916008610168491C01607047502080F339
:104460001188BFF34F8FBFF36F8F0A494868401C14
:10447000486001280CD10848006810F0FF0F07D0F1
:10448000502080F31188BFF34F8FBFF36F8FFEE78B
:1044900070470000F000002004ED00E00849486883
:1044A00028B1401E486001D180F311887047502028
:1044B00080F31188BFF34F8FBFF36F8FFEE70000CB
:1044C000F000002070B5002827D0144DA0F108049A
:1044D0006168E868014207D1502080F31188BFF37A
:1044E0004F8FBFF36F8FFEE722683AB1502080F301
:1044F0001188BFF34F8FBFF36F8FFEE78143616079
:1045000000F02CF960686968084468602046FFF78D
:10451000DFFCBDE8704000F08FBD70BDD80000200A
:104520004FF0E02000210161816105494FF47A726A
:104530000968B1FBF2F1491E416107210161704731
:104540008000002010B5FBF787FE114910280ED31C
:1045500000F1E02090F8F0030A78904207D2502052
:1045600080F31188BFF34F8FBFF36F8FFEE70948C9
:104570000068896800F4E060884207D9502080F321
:104580001188BFF34F8FBFF36F8FFEE710BD0000A0
:10459000F00000200CED00E010B5084B002200BF39
:1045A00053F832401CB1521C082AF9D310BD43F80D
:1045B000321003EBC201486010BD0000701B0020E8
:1045C00070B515460E460446FFF748FF94F94410AF
:1045D0000020491C01D184F8440094F94510491C7D
:1045E00001D184F84500FFF759FFA06B28B92A468E
:1045F000314604F1240000F051F82046BDE8704037
:10460000FFF714BE10B5020014D00F48806B38B10C
:10461000502080F31188BFF34F8FBFF36F8FFEE7F9
:1046200000F09CF800211046FFF76CFA00F004FD42
:10463000002807D105494FF080500860BFF34F8F25
:10464000BFF36F8F10BD00008400002004ED00E078
:1046500002498A6A0260496941607047840000200B
:1046600001490120486270478400002010B50C46C3
:1046700050B1094909681831FFF7CCFE2046BDE862
:1046800010400121FFF73EBA502080F31188BFF39C
:104690004F8FBFF36F8FFEE78400002070B5144684
:1046A0000D4668B10A4909681831FFF7CBFE0CB115
:1046B0004FF0FF3521462846BDE87040FFF722BA8B
:1046C000502080F31188BFF34F8FBFF36F8FFEE749
:1046D0008400002030B587B00024039405AA04A903
:1046E00003A80494FFF772FEDDE903010094CDE90D
:1046F0000110002315A11748059A00F082FB164D02
:10470000002868631FD000F0F9FC012809D0401C84
:1047100019D1502080F31188BFF34F8FBFF36F8FF3
:10472000FEE7502080F31188BFF34F8FBFF36F8FE8
:104730004FF0FF3028630120E8616C6107B0BDE8ED
:10474000304000F045B807B030BD000049444C454A
:10475000000000009D3D0008840000200248816B9D
:10476000491C81637047000084000020164810B582
:10477000816B11B10121416210BD0021416281694B
:10478000124A01E0B9B1491E01EB810352F823300E
:10479000002BF7D001EB810302EB830202F1080446
:1047A00053685B685360A34201D15B685360DA6869
:1047B0000260816110BD502080F31188BFF34F8FDC
:1047C000BFF36F8FFEE7000084000020B01B0020C5
:1047D0001CB537480168374A914207D1502080F311
:1047E0001188BFF34F8FBFF36F8FFEE70068314929
:1047F000491E884207D1502080F31188BFF34F8FA4
:10480000BFF36F8FFEE72C4908780190FF200870F6
:1048100008788DF800009DF800009DF8002000F059
:10482000F000904207D0502080F31188BFF34F8FE3
:10483000BFF36F8FFEE79DF80000204B00F05000A3
:1048400018700720986005E09DF8002052008DF850
:104850000020401E9DF800201206F5D49860032821
:1048600007D0502080F31188BFF34F8FBFF36F8FB5
:10487000FEE74FF440709860019808700C482030B3
:10488000016841F470010160016841F0704101600C
:10489000FFF746FE00205860FBF7A6FC08480168B9
:1048A00041F040410160FBF78BFC00201CBD000083
:1048B00000ED00E071C20F4100E400E0F0000020D4
:1048C00034EF00E010B5502080F31188BFF34F8F14
:1048D000BFF36F8F00F0D4FA18B104494FF0805045
:1048E0000860002080F3118810BD000004ED00E096
:1048F00038B5049D18B153B1CAB181B120E0502040
:1049000080F31188BFF34F8FBFF36F8FFEE7502006
:1049100080F31188BFF34F8FBFF36F8FFEE75020F6
:1049200080F31188BFF34F8FBFF36F8FFEE739B16C
:10493000502080F31188BFF34F8FBFF36F8FFEE7D6
:1049400050241C46012384F846302B460094FFF780
:1049500055FA204638BD000070B50D46040025D03C
:10496000FFF77CFDD4E90F20216802FB0011A16054
:104970000021A163216861600A46D4E90F01401E4D
:1049800000FB0121E16021464FF0FF3001F8440FA8
:10499000487004F110008DB1FFF72EFD04F12400E2
:1049A000FFF72AFDFFF77AFD012070BD502080F34C
:1049B0001188BFF34F8FBFF36F8FFEE72169002986
:1049C000F0D000F001FB0028ECD004494FF08050FB
:1049D0000860BFF34F8FBFF36F8FE3E704ED00E094
:1049E0002DE9FF4782B01D468A464FF000080400BB
:1049F00003D0BAF1000F08D011E0502080F31188E5
:104A0000BFF34F8FBFF36F8FFEE7206C38B150209C
:104A100080F31188BFF34F8FBFF36F8FFEE7022D36
:104A20000AD1E06B012807D0502080F31188BFF332
:104A30004F8FBFF36F8FFEE700F00EFA3F4F4FF03E
:104A400000094FF0805648B9049838B1502080F3DF
:104A50001188BFF34F8FBFF36F8FFEE7FFF7FEFCA8
:104A6000A06BE16B884207D3022D05D00498D0B12A
:104A7000B8F1000F1AD01EE02A4651462046FFF733
:104A800016F9616A19B104F1240000F09DFA20B111
:104A90003E60BFF34F8FBFF36F8FFFF7FFFC012026
:104AA00006B0BDE8F087FFF7F9FC22E06846FFF7A3
:104AB000CFFD4FF00108FFF7F1FCFFF74FFEFFF7C6
:104AC000CDFC94F94400401C01D184F8449094F941
:104AD0004500401C01D184F84590FFF7DFFC04A994
:104AE000684600F027F930B12046FFF79FFB00F041
:104AF000A3FA0020D4E7FFF7B1FCA06BE16B88427A
:104B000013D1FFF7CBFC04F110000499FFF7AEFDC1
:104B10002046FFF78BFB00F08FFA00289ED13E6005
:104B2000BFF34F8FBFF36F8F98E7FFF7B7FC2046B7
:104B3000FFF77CFB00F080FA90E7000004ED00E056
:104B40002DE9F0471F4690468946040003D0B9F18D
:104B5000000F08D011E0502080F31188BFF34F8F71
:104B6000BFF36F8FFEE7206C38B1502080F31188BF
:104B7000BFF34F8FBFF36F8FFEE7022F0AD1E06BB9
:104B8000012807D0502080F31188BFF34F8FBFF367
:104B90006F8FFEE7FFF7D6FC5020EFF3118680F30E
:104BA0001188BFF34F8FBFF36F8FA06BE16B88420B
:104BB00006D3022F04D0002086F31188BDE8F087C9
:104BC00094F945503A4649462046FFF770F8681C6C
:104BD00004D06D1C84F845500120EDE7606A002880
:104BE000FAD004F1240000F0EFF90028F4D0B8F175
:104BF000000FF1D00121C8F80010EDE72DE9F747CB
:104C0000002683B08A46040003D0BAF1000F08D012
:104C100011E0502080F31188BFF34F8FBFF36F8FE7
:104C2000FEE7206C38B1502080F31188BFF34F8F1E
:104C3000BFF36F8FFEE700F00FF9DFF8F4804FF05D
:104C400000094FF0805748B9059838B1502080F3DB
:104C50001188BFF34F8FBFF36F8FFEE7FFF7FEFBA7
:104C6000A56BC5B151462046FFF70EF86D1EA56332
:104C7000206950B104F1100000F0A6F928B1C8F87D
:104C80000070BFF34F8FBFF36F8FFFF707FC01205A
:104C900006B0BDE8F087059808B11EB106E0FFF741
:104CA000FDFB27E06846FFF7D3FC0126FFF7F6FB84
:104CB000FFF754FDFFF7D2FB94F94400401C01D1EB
:104CC00084F8449094F94500401C01D184F8459043
:104CD000FFF7E4FB05A9684600F02CF80028204601
:104CE0000AD0FFF7A3FA00F0A7F92046FFF732F940
:104CF0000028B3D00020CBE7FFF72CF990B104F1E6
:104D000024000599FFF7B2FC2046FFF78FFA00F068
:104D100093F90028A2D1C8F80070BFF34F8FBFF3FA
:104D20006F8F9BE72046FFF781FA00F085F995E742
:104D300004ED00E02DE9F0410C46050011D0C4B1AE
:104D4000FFF78CFB174B5A696E682068911B471C54
:104D500017D02F689B6A9F4219D0964217D801241A
:104D600010E0502080F31188BFF34F8FBFF36F8F97
:104D7000FEE7502080F31188BFF34F8FBFF36F8F92
:104D8000FEE70024FFF78AFB2046BDE8F081884259
:104D900005D9401A20602846FFF75AFCF1E70020A9
:104DA0002060DCE7840000202DE9FF5F8346DDE919
:104DB0000E87994616468A469000FFF76DFA050061
:104DC0001CD05C20FFF768FA040014D00020256393
:104DD00084F85900CDE90240CDE900874B463246C0
:104DE00051465846FFF71CF82046FEF7B9FE012051
:104DF00004B0BDE8F09F2846FFF764FB4FF0FF309A
:104E0000F6E7F0B585B0DDE90B640A9DA6B1DCB12B
:104E10005C2700972663022684F85960002604AFB9
:104E2000CDE90246CDE90057FEF7FAFF2046FEF72E
:104E300097FE049805B0F0BD502080F31188BFF3B1
:104E40004F8FBFF36F8FFEE7502080F31188BFF3C1
:104E50004F8FBFF36F8FFEE70548C16919B1806BB3
:104E600018B10020704701207047022070470000F1
:104E70008400002001484069704700008400002041
:104E80002DE9F0412E4C0027A06B40B1206A401C58
:104E90002062606A00B101273846BDE8F08166698A
:104EA000761C666113D16068006838B1502080F3C9
:104EB0001188BFF34F8FBFF36F8FFEE76068A16863
:104EC0006160A060A06A401CA062FFF72FF9206B10
:104ED000DFF87080864209D36068006880B160683E
:104EE000C068C568686886420DD220632068C06AC1
:104EF00000EB800158F821000128CAD90127C8E732
:104F00004FF0FF30F1E7281DFFF74DFAA86A18B1FE
:104F100005F11800FFF747FAE86AA169884200D94D
:104F2000A06100EB800108EB8100291DFFF78AFAE0
:104F3000E86A2168C96A8842CED30127CCE700001D
:104F400084000020B01B002070B504004FF0000169
:104F500033D01B4D2868844207D0502080F311883D
:104F6000BFF34F8FBFF36F8FFEE7206D38B1401E48
:104F70002065E36CE26A9A421FD040B11DE05020E8
:104F800080F31188BFF34F8FBFF36F8FFEE7201DB3
:104F9000FFF709FAE06CE062C0F13800A061E06A56
:104FA000A969884200D9A861064900EB800001EB9D
:104FB0008000211DFFF746FA0121084670BD000060
:104FC00084000020B01B002070B5C068C46854B1D4
:104FD00004F118000646FFF7E6F9144DA86B50B12E
:104FE0003146134815E0502080F31188BFF34F8FEE
:104FF000BFF36F8FFEE7201DFFF7D5F9E06AA969BF
:10500000884200D9A8610B4900EB800001EB8000C9
:10501000211DFFF717FAE06A2968C96A884202D998
:105020000120686270BD002070BD00008400002077
:1050300038200020B01B00202DE9F0472C4D002423
:105040002746A86B38B1FFF709FAA86B401EA86382
:10505000A86B40B146E0502080F31188BFF34F8F1A
:10506000BFF36F8FFEE72969224E0120D1B3A6F569
:10507000916980463068E0B1F068C46804F11800B6
:10508000FFF791F9201DFFF78EF9E06AA9698842C0
:1050900000D9A86100EB800109EB8100211DFFF719
:1050A000D1F9E06A2968C96A8842E3D3C5F8248047
:1050B000E0E70CB1FFF73AF82C6A4CB14FEA08066A
:1050C000FFF7DEFE00B16E62641EF9D10020286297
:1050D000686A38B10849012738070860BFF34F8F65
:1050E000BFF36F8FFFF7DAF93846BDE8F0870000AD
:1050F000840000203820002004ED00E010B586B0C8
:10510000FEF796FD114CA068B8B100200390049002
:1051100005AA04A903A8FFF763F9DDE9032102202A
:105120008DE8070000230AA10B48059AFFF769FEE6
:10513000E06010B106B0012010BD502080F311884E
:10514000BFF34F8FBFF36F8FFEE70000C00000205A
:10515000546D722053766300094200082DE9FF4127
:105160001E46134602000A9D4FF0000016D0144C54
:10517000A768002F0FD0CDE900130292062917DA95
:10518000FFF76AFE02284FF000030FD000226946A5
:10519000A068FFF725FC04B0BDE8F081502080F343
:1051A0001188BFF34F8FBFF36F8FFEE72A46EEE7FC
:1051B0000023324669463846FFF7C2FCEBE70000A1
:1051C000C000002040520008000000000000000065
:1051D00000000000000000000002000018000000B5
:1051E000000000000000000058520008000000000D
:1051F00000000000000000000000000000020000AD
:105200001800000000000000000000004C520008E0
:10521000000000000000000000000000000000008E
:105220000002000018000000000000000000000064
:105230000000000000000000010203040607080946
:1052400064656661756C745461736B007573657227
:10525000436F6E74726F6C00627574746F6E52651A
:10526000706F727400000000885200080000002077
:105270001802000090030008545300081802002090
:1052800030760000C6380008F2011311251B0841D2
:10529000041A4D041A75041AA10413F1241B081DE5
:1052A00008170403090412011402020216408304C1
:1052B00040571D0201020341031A1A0313F1031B95
:1052C00008ED041AE9041315041B08390429748233
:1052D00010037124F41AAA0181130A0632022A402B
:1052E000941C090243D31125C03209041B01020B8F
:1052F00013052416100105240110090104240202DB
:105300000524061701070582030815100904013357
:10531000020A1D07050102432C07058107093844CD
:105320002A40072A8107112B0907440A3B0444132A
:105330006D221408CF211408612342081A19101A8B
:1053400043101AA504C11A55181A49041A61041AFF
:045350003D04810097
:040000050800018965
:00000001FF
